{
  "_format": "hh-sol-artifact-1",
  "contractName": "AuraBounty",
  "sourceName": "contracts/AuraBounty.sol",
  "abi": [
    {
      "inputs": [
        {
          "internalType": "address",
          "name": "_usdcToken",
          "type": "address"
        }
      ],
      "stateMutability": "nonpayable",
      "type": "constructor"
    },
    {
      "anonymous": false,
      "inputs": [
        {
          "indexed": true,
          "internalType": "uint256",
          "name": "id",
          "type": "uint256"
        },
        {
          "indexed": false,
          "internalType": "uint256",
          "name": "remainingBudget",
          "type": "uint256"
        }
      ],
      "name": "BountyClosed",
      "type": "event"
    },
    {
      "anonymous": false,
      "inputs": [
        {
          "indexed": true,
          "internalType": "uint256",
          "name": "id",
          "type": "uint256"
        },
        {
          "indexed": false,
          "internalType": "uint256",
          "name": "rewardPerKwh",
          "type": "uint256"
        },
        {
          "indexed": false,
          "internalType": "uint256",
          "name": "totalBudget",
          "type": "uint256"
        },
        {
          "indexed": false,
          "internalType": "uint256",
          "name": "deadline",
          "type": "uint256"
        }
      ],
      "name": "BountyCreated",
      "type": "event"
    },
    {
      "anonymous": false,
      "inputs": [
        {
          "indexed": true,
          "internalType": "uint256",
          "name": "id",
          "type": "uint256"
        },
        {
          "indexed": true,
          "internalType": "address",
          "name": "claimant",
          "type": "address"
        },
        {
          "indexed": false,
          "internalType": "uint256",
          "name": "kwhSaved",
          "type": "uint256"
        },
        {
          "indexed": false,
          "internalType": "uint256",
          "name": "reward",
          "type": "uint256"
        }
      ],
      "name": "RewardClaimed",
      "type": "event"
    },
    {
      "inputs": [
        {
          "internalType": "uint256",
          "name": "",
          "type": "uint256"
        }
      ],
      "name": "bounties",
      "outputs": [
        {
          "internalType": "uint256",
          "name": "id",
          "type": "uint256"
        },
        {
          "internalType": "uint256",
          "name": "rewardPerKwh",
          "type": "uint256"
        },
        {
          "internalType": "uint256",
          "name": "totalBudget",
          "type": "uint256"
        },
        {
          "internalType": "uint256",
          "name": "remainingBudget",
          "type": "uint256"
        },
        {
          "internalType": "uint256",
          "name": "deadline",
          "type": "uint256"
        },
        {
          "internalType": "bool",
          "name": "active",
          "type": "bool"
        }
      ],
      "stateMutability": "view",
      "type": "function"
    },
    {
      "inputs": [],
      "name": "bountyCounter",
      "outputs": [
        {
          "internalType": "uint256",
          "name": "",
          "type": "uint256"
        }
      ],
      "stateMutability": "view",
      "type": "function"
    },
    {
      "inputs": [
        {
          "internalType": "uint256",
          "name": "bountyId",
          "type": "uint256"
        },
        {
          "internalType": "uint256",
          "name": "kwhSaved",
          "type": "uint256"
        },
        {
          "internalType": "bytes32",
          "name": "proofHash",
          "type": "bytes32"
        }
      ],
      "name": "claimReward",
      "outputs": [],
      "stateMutability": "nonpayable",
      "type": "function"
    },
    {
      "inputs": [
        {
          "internalType": "uint256",
          "name": "bountyId",
          "type": "uint256"
        }
      ],
      "name": "closeBounty",
      "outputs": [],
      "stateMutability": "nonpayable",
      "type": "function"
    },
    {
      "inputs": [
        {
          "internalType": "uint256",
          "name": "rewardPerKwh",
          "type": "uint256"
        },
        {
          "internalType": "uint256",
          "name": "totalBudget",
          "type": "uint256"
        },
        {
          "internalType": "uint256",
          "name": "deadline",
          "type": "uint256"
        }
      ],
      "name": "createBounty",
      "outputs": [],
      "stateMutability": "nonpayable",
      "type": "function"
    },
    {
      "inputs": [],
      "name": "getActiveBounties",
      "outputs": [
        {
          "internalType": "uint256[]",
          "name": "",
          "type": "uint256[]"
        }
      ],
      "stateMutability": "view",
      "type": "function"
    },
    {
      "inputs": [],
      "name": "usdcToken",
      "outputs": [
        {
          "internalType": "contract IERC20",
          "name": "",
          "type": "address"
        }
      ],
      "stateMutability": "view",
      "type": "function"
    }
  ],
  "bytecode": "0x60806040523480156200001157600080fd5b5060405162001391380380620013918339818101604052810190620000379190620000e8565b806000806101000a81548173ffffffffffffffffffffffffffffffffffffffff021916908373ffffffffffffffffffffffffffffffffffffffff160217905550506200011a565b600080fd5b600073ffffffffffffffffffffffffffffffffffffffff82169050919050565b6000620000b08262000083565b9050919050565b620000c281620000a3565b8114620000ce57600080fd5b50565b600081519050620000e281620000b7565b92915050565b6000602082840312156200010157620001006200007e565b5b60006200011184828501620000d1565b91505092915050565b611267806200012a6000396000f3fe608060405234801561001057600080fd5b506004361061007d5760003560e01c8063b4e512691161005b578063b4e51269146100da578063b988997f146100f8578063c2241af614610114578063dc2f8744146101305761007d565b806311eac85514610082578063484aa104146100a0578063a0d59787146100bc575b600080fd5b61008a610165565b60405161009791906109c2565b60405180910390f35b6100ba60048036038101906100b59190610a4e565b610189565b005b6100c46103a5565b6040516100d19190610ab0565b60405180910390f35b6100e26103ab565b6040516100ef9190610b89565b60405180910390f35b610112600480360381019061010d9190610bab565b610521565b005b61012e60048036038101906101299190610bd8565b6106dd565b005b61014a60048036038101906101459190610bab565b6108fa565b60405161015c96959493929190610c46565b60405180910390f35b60008054906101000a900473ffffffffffffffffffffffffffffffffffffffff1681565b60006002600085815260200190815260200160002090508060050160009054906101000a900460ff166101f1576040517f08c379a00000000000000000000000000000000000000000000000000000000081526004016101e890610d04565b60405180910390fd5b8060040154421115610238576040517f08c379a000000000000000000000000000000000000000000000000000000000815260040161022f90610d70565b60405180910390fd5b600081600101548461024a9190610dbf565b90508160030154811115610293576040517f08c379a000000000000000000000000000000000000000000000000000000000815260040161028a90610e4d565b60405180910390fd5b808260030160008282546102a79190610e6d565b9250508190555060008054906101000a900473ffffffffffffffffffffffffffffffffffffffff1673ffffffffffffffffffffffffffffffffffffffff1663a9059cbb33836040518363ffffffff1660e01b8152600401610309929190610ec2565b6020604051808303816000875af1158015610328573d6000803e3d6000fd5b505050506040513d601f19601f8201168201806040525081019061034c9190610f17565b503373ffffffffffffffffffffffffffffffffffffffff16857ffc6ecd966b430510beae9124efe7dd517ed5286d7ed0ae258f8556c7a9765a448684604051610396929190610f44565b60405180910390a35050505050565b60015481565b6060600080600190505b600154811161042b576002600082815260200190815260200160002060050160009054906101000a900460ff168015610404575060026000828152602001908152602001600020600401544211155b1561041857818061041490610f6d565b9250505b808061042390610f6d565b9150506103b5565b5060008167ffffffffffffffff81111561044857610447610fb5565b5b6040519080825280602002602001820160405280156104765781602001602082028036833780820191505090505b509050600080600190505b6001548111610517576002600082815260200190815260200160002060050160009054906101000a900460ff1680156104d0575060026000828152602001908152602001600020600401544211155b1561050457808383815181106104e9576104e8610fe4565b5b602002602001018181525050818061050090610f6d565b9250505b808061050f90610f6d565b915050610481565b5081935050505090565b60006002600083815260200190815260200160002090508060050160009054906101000a900460ff16610589576040517f08c379a00000000000000000000000000000000000000000000000000000000081526004016105809061105f565b60405180910390fd5b806004015442116105cf576040517f08c379a00000000000000000000000000000000000000000000000000000000081526004016105c6906110cb565b60405180910390fd5b60008160050160006101000a81548160ff02191690831515021790555060008160030154111561069d5760008054906101000a900473ffffffffffffffffffffffffffffffffffffffff1673ffffffffffffffffffffffffffffffffffffffff1663a9059cbb3383600301546040518363ffffffff1660e01b8152600401610658929190610ec2565b6020604051808303816000875af1158015610677573d6000803e3d6000fd5b505050506040513d601f19601f8201168201806040525081019061069b9190610f17565b505b817fe44903a04328507d74e4709cbebc6c819f9f1cd0b7cb171ba22814fcc18ecf3882600301546040516106d19190610ab0565b60405180910390a25050565b42811161071f576040517f08c379a000000000000000000000000000000000000000000000000000000000815260040161071690611137565b60405180910390fd5b60008211610762576040517f08c379a0000000000000000000000000000000000000000000000000000000008152600401610759906111a3565b60405180910390fd5b60008054906101000a900473ffffffffffffffffffffffffffffffffffffffff1673ffffffffffffffffffffffffffffffffffffffff166323b872dd3330856040518463ffffffff1660e01b81526004016107bf939291906111c3565b6020604051808303816000875af11580156107de573d6000803e3d6000fd5b505050506040513d601f19601f820116820180604052508101906108029190610f17565b506001600081548092919061081690610f6d565b91905055506040518060c00160405280600154815260200184815260200183815260200183815260200182815260200160011515815250600260006001548152602001908152602001600020600082015181600001556020820151816001015560408201518160020155606082015181600301556080820151816004015560a08201518160050160006101000a81548160ff0219169083151502179055509050506001547f2254ec8b2d186fbd6baf41ad251166871af5189bbaba60796291278bd05b31538484846040516108ed939291906111fa565b60405180910390a2505050565b60026020528060005260406000206000915090508060000154908060010154908060020154908060030154908060040154908060050160009054906101000a900460ff16905086565b600073ffffffffffffffffffffffffffffffffffffffff82169050919050565b6000819050919050565b600061098861098361097e84610943565b610963565b610943565b9050919050565b600061099a8261096d565b9050919050565b60006109ac8261098f565b9050919050565b6109bc816109a1565b82525050565b60006020820190506109d760008301846109b3565b92915050565b600080fd5b6000819050919050565b6109f5816109e2565b8114610a0057600080fd5b50565b600081359050610a12816109ec565b92915050565b6000819050919050565b610a2b81610a18565b8114610a3657600080fd5b50565b600081359050610a4881610a22565b92915050565b600080600060608486031215610a6757610a666109dd565b5b6000610a7586828701610a03565b9350506020610a8686828701610a03565b9250506040610a9786828701610a39565b9150509250925092565b610aaa816109e2565b82525050565b6000602082019050610ac56000830184610aa1565b92915050565b600081519050919050565b600082825260208201905092915050565b6000819050602082019050919050565b610b00816109e2565b82525050565b6000610b128383610af7565b60208301905092915050565b6000602082019050919050565b6000610b3682610acb565b610b408185610ad6565b9350610b4b83610ae7565b8060005b83811015610b7c578151610b638882610b06565b9750610b6e83610b1e565b925050600181019050610b4f565b5085935050505092915050565b60006020820190508181036000830152610ba38184610b2b565b905092915050565b600060208284031215610bc157610bc06109dd565b5b6000610bcf84828501610a03565b91505092915050565b600080600060608486031215610bf157610bf06109dd565b5b6000610bff86828701610a03565b9350506020610c1086828701610a03565b9250506040610c2186828701610a03565b9150509250925092565b60008115159050919050565b610c4081610c2b565b82525050565b600060c082019050610c5b6000830189610aa1565b610c686020830188610aa1565b610c756040830187610aa1565b610c826060830186610aa1565b610c8f6080830185610aa1565b610c9c60a0830184610c37565b979650505050505050565b600082825260208201905092915050565b7f426f756e7479206e6f7420616374697665000000000000000000000000000000600082015250565b6000610cee601183610ca7565b9150610cf982610cb8565b602082019050919050565b60006020820190508181036000830152610d1d81610ce1565b9050919050565b7f426f756e74792065787069726564000000000000000000000000000000000000600082015250565b6000610d5a600e83610ca7565b9150610d6582610d24565b602082019050919050565b60006020820190508181036000830152610d8981610d4d565b9050919050565b7f4e487b7100000000000000000000000000000000000000000000000000000000600052601160045260246000fd5b6000610dca826109e2565b9150610dd5836109e2565b9250828202610de3816109e2565b91508282048414831517610dfa57610df9610d90565b5b5092915050565b7f496e73756666696369656e742062756467657400000000000000000000000000600082015250565b6000610e37601383610ca7565b9150610e4282610e01565b602082019050919050565b60006020820190508181036000830152610e6681610e2a565b9050919050565b6000610e78826109e2565b9150610e83836109e2565b9250828203905081811115610e9b57610e9a610d90565b5b92915050565b6000610eac82610943565b9050919050565b610ebc81610ea1565b82525050565b6000604082019050610ed76000830185610eb3565b610ee46020830184610aa1565b9392505050565b610ef481610c2b565b8114610eff57600080fd5b50565b600081519050610f1181610eeb565b92915050565b600060208284031215610f2d57610f2c6109dd565b5b6000610f3b84828501610f02565b91505092915050565b6000604082019050610f596000830185610aa1565b610f666020830184610aa1565b9392505050565b6000610f78826109e2565b91507fffffffffffffffffffffffffffffffffffffffffffffffffffffffffffffffff8203610faa57610fa9610d90565b5b600182019050919050565b7f4e487b7100000000000000000000000000000000000000000000000000000000600052604160045260246000fd5b7f4e487b7100000000000000000000000000000000000000000000000000000000600052603260045260246000fd5b7f416c726561647920636c6f736564000000000000000000000000000000000000600082015250565b6000611049600e83610ca7565b915061105482611013565b602082019050919050565b600060208201905081810360008301526110788161103c565b9050919050565b7f4e6f742065787069726564207965740000000000000000000000000000000000600082015250565b60006110b5600f83610ca7565b91506110c08261107f565b602082019050919050565b600060208201905081810360008301526110e4816110a8565b9050919050565b7f446561646c696e65206d75737420626520696e20667574757265000000000000600082015250565b6000611121601a83610ca7565b915061112c826110eb565b602082019050919050565b6000602082019050818103600083015261115081611114565b9050919050565b7f427564676574206d75737420626520706f736974697665000000000000000000600082015250565b600061118d601783610ca7565b915061119882611157565b602082019050919050565b600060208201905081810360008301526111bc81611180565b9050919050565b60006060820190506111d86000830186610eb3565b6111e56020830185610eb3565b6111f26040830184610aa1565b949350505050565b600060608201905061120f6000830186610aa1565b61121c6020830185610aa1565b6112296040830184610aa1565b94935050505056fea2646970667358221220b10983548a82974d8669644485cf5ba6f59adc9395b3281efb1c939e2d7f328764736f6c63430008140033",
  "linkReferences": {},
  "deployedLinkReferences": {}
}